:020000040000FA
:04200000A9EF3FF015
:107F52000001B9EF3FF0000E896E000E926EC10E65
:107F62008A6E000E936E000E8B6E000E946E1200DF
:107F7200ACEC3FF0870ED56ED650016AD7AE01D079
:107F8200012A01A0C7EF3FF0CAEF3FF0938ECBEF7B
:107F92003FF0939ED7CF01F0060E026ED8900132C9
:107FA200022ECFEF3FF001A0D9EF3FF0DCEF3FF020
:107FB200938CDDEF3FF0939CD7CF01F0050E026E5C
:107FC200D8900132022EE1EF3FF001A0EBEF3FF03B
:107FD200EEEF3FF0948CEFEF3FF0949C016AD7AE46
:107FE20001D0012A01A0F8EF3FF0FBEF3FF09380B0
:0E7FF200FCEF3FF09390BDEF3FF000EF10F07A
:020000040020DA
:08000000FFFFFFFFFFFFFFFF00
:020000040030CA
:0E00000000255F3FFFD385FF0FC00FE00F40CC
:00000001FF
